:020000040800F2
:10000000E007002045010008D7150008F11300089B
:10001000D515000807020008A91A00080000000012
:10002000000000000000000000000000DB150008D8
:100030000902000800000000D9150008DD150008BD
:100040005F0100085F0100085F0100085F01000810
:100050005F0100085F0100085F0100085F01000800
:100060005F0100085F0100085F0100085F010008F0
:100070005F0100085F0100085F0100085F010008E0
:100080005F0100085F0100085F0100085F010008D0
:100090005F0100085F0100085F0100085F010008C0
:1000A0005F0100085F0100085F0100085F010008B0
:1000B0005F0100085F0100085F0100085F010008A0
:1000C0005F0100085F0100085F0100085F01000890
:1000D0005F0100085F0100085F0100085F01000880
:1000E0005F0100085F0100085F0100085F01000870
:1000F0005F0100085F0100085F0100085F01000860
:100100005F0100085F0100085F0100085F0100084F
:10011000C91800085F0100085F0100085F010008BE
:100120005F0100085F0100085F0100085F0100082F
:10013000DFF80CD000F02AF800480047E91A000860
:10014000E00700200648804706480047FEE7FEE734
:10015000FEE7FEE7FEE7FEE7FEE7FEE7FEE7FEE777
:100160002F16000831010008D2B201E000F8012B7F
:10017000491EFBD270470022F6E710B513460A4627
:1001800004461946FFF7F0FF204610BD064C074D08
:1001900006E0E06840F0010394E807009847103457
:1001A000AC42F6D3FFF7C8FF1C1F00083C1F000835
:1001B00070B58C1810F8015B15F0070301D110F829
:1001C000013B2A1106D110F8012B03E010F8016B56
:1001D00001F8016B5B1EF9D12B0705D40023521ED9
:1001E0000DD401F8013BFAE710F8013BCB1A921C41
:1001F00003E013F8015B01F8015B521EF9D5A1423F
:10020000D8D3002070BDFEE7704770472DE9F05F3E
:1002100090F821100024022903D0042181630124D5
:1002200085E001680A6822F00E020A6001680A6827
:1002300022F001020A603F4E3E4FB215DFF8F4C0D3
:10024000DFF8F090DFF8ECA0DFF8E8B0DFF8E4E0EA
:100250000168783F13011502ACF1640CA9F1500953
:10026000AAF13C0AABF1280BAEF1140E4FF4801842
:10027000B14227D9B9420ED0614512D049451DD0AF
:10028000514518D0594518D0714501D1424615E065
:10029000294EB14201D1012210E0274E1436B1425D
:1002A00001D110220AE0244E2836B14206D0224A5B
:1002B0003C32914201D11A4600E02A461E49091FEC
:1002C0000A602BE0B94213D0614517D0494522D0CE
:1002D00051451DD059451DD0714501D142461AE006
:1002E000B14202D14FF0807215E0134EB14201D1FC
:1002F000012210E0104E1436B14201D110220AE062
:100300000D4E2836B14206D00B4A3C32914201D103
:100310001A4600E02A46074980394A60012180F8E0
:100320002110002180F82010416B01B18847204640
:10033000BDE8F09F800002400804024070B504460A
:1003400000F010F90546601C02D00448007804440F
:1003500000F008F9401BA042FAD370BD9C020020B7
:100360002DE9F84FDFF8C891002409F1040A0AF1D9
:10037000040B23460F270BF1040ED1E00125A54005
:1003800006EA0502AA4276D1DFF8A8C14E68A6EBBC
:100390000C0866452BD00DDC032E34D005DC36B3BB
:1003A000012E19D0022E2FD11BE0112E16D0122EA5
:1003B0002AD119E0B8F5881F19D006DCB8F5803FBE
:1003C00015D0B8F5801F1FD111E0B8F5001F0ED071
:1003D000B8F5041F18D10AE0CB6815E0CB681B1DE7
:1003E00012E0CB6808330FE0CB680C330CE08B686D
:1003F0002BB1012B4FF0080303D0456104E0042327
:1004000002E0056100E00023FF2A01D8064601E072
:1004100000F104064FEA840501D9A5F12005D6F8BC
:10042000008007FA05FC28EA0C0803FA05F548EAFB
:100430000508C6F800804D68ED0070D53E4DAE69E8
:1004400046F00106AE61AD6924F0030605F0010532
:1004500000953A4D06EB050CDCF80850A607360F60
:1004600007FA06F825EA0805DFF8D480404503D1ED
:100470004FF0000825E052E0DFF8C880404502D187
:100480004FF001081DE0DFF8C080404502D14FF079
:10049000020816E0DFF8B480404502D14FF00308AF
:1004A0000FE0DFF8AC80404502D14FF0040808E0CF
:1004B000DFF8A080404502D14FF0050801E04FF081
:1004C000060808FA06F848EA0508CCF808804D68DE
:1004D000D9F80060ED034D4601D5164300E0964380
:1004E0002E604D68DAF80060AD03554601D516431D
:1004F00000E096432E604D68DBF80060ED025D463B
:1005000001D5164300E096432E604D68DEF800608A
:10051000AD02754601D5164300E096432E60641C7B
:100520000A681646E2407FF429AFBDE8F88F000064
:1005300000040140000011100010024000000140C2
:1005400000080140000C014000100140001401406F
:1005500000180140001C01400AB101617047090404
:10056000FBE7000001488068704700009C02002003
:100570000248816802781144816070479C02002023
:10058000074810B5016841F010010160032000F038
:1005900075F8002000F006F800F024F8002010BDE7
:1005A0000020024070B50D4D04464FF47A71287852
:1005B000B1FBF0F00A490968B1FBF0F000F0ECFA89
:1005C00048B9102C07D200222146501E00F036F800
:1005D00000206C6070BD012070BD00009C020020F6
:1005E000A80200200C4808B5816941F00101816131
:1005F000816901F001010091C16941F08051C1613F
:10060000C06900F0805000900448416821F0E0612A
:1006100041F00071416008BD00100240000001403F
:10062000002809DB00F01F020121914040098000F1
:1006300000F1E020C0F8001170470000F0B40E4B4C
:100640001B680C46C3F30223C3F10705042D00D930
:100650000425191D072901D2002300E0DB1E012615
:1006600006FA05F1491E214099409E40761E16402B
:100670003143F0BC01F019BA0CED00E0064900F07E
:10068000070208684FF6FF03184040EA0220034AB9
:1006900010430860704700000CED00E00000FA0510
:1006A0002DE9F0470F46050061D0434E306800F059
:1006B0000700B84209D2306820F0070038433060A4
:1006C000306800F00700B84251D128683B4C8107E0
:1006D00012D5400703D5606840F4E0606060287878
:1006E000000703D5606840F4605060606068A968E6
:1006F00020F0F000084360602878C00728D06868C0
:10070000012810D02168022810D0890700292EDA8C
:10071000616821F0030101436160FFF723FF804618
:1007200041F288390DE021688903EFE78901EDE79F
:10073000FFF718FFA0EB0801494502D90320BDE8E7
:10074000F0876068696800F00C00B0EB810FEFD1B2
:10075000306800F00700B8420BD9306820F007007D
:1007600038433060306800F00700B84201D0012003
:10077000E5E72878400705D56068E96820F4E0607F
:10078000084360602878000706D56068296920F46E
:10079000605040EAC100606000F038F86168084AC3
:1007A000C1F30311515CC84006490860064800685F
:1007B000FFF7F8FE0020C2E70020024000100240D0
:1007C000041F0008A8020020A002002004480549D8
:1007D00000684968044AC1F30221515CC84070476F
:1007E000A802002000100240141F00080448054918
:1007F00000684968044AC1F3C221515CC84070478F
:10080000A802002000100240141F000812A185B0A9
:100810000FC98DE80F0014A0144A006804905168B5
:10082000134801F00C03042B10D0082B0ED1C1F398
:100830008343C9031DF803000AD5516804AAC1F314
:100840004041515C0A4A5043B0FBF1F005B070479B
:1008500008494843FAE700000203040506070809AF
:100860000A0B0C0D0E0F10100102000000100240C8
:1008700000127A0000093D002DE9F84F040070D005
:100880002078C04DC00749D06868C0F381000128B6
:1008900007D06868C0F38100022809D16868C003E6
:1008A00006D52868800339D560680028E7D035E090
:1008B0006068B0F5803F0BD010B1B0F5A02F11D01B
:1008C000286820F480302860286820F4802002E026
:1008D000286840F480302860606890B1FFF742FEDD
:1008E00006460AE0286840F480202860F0E700BF50
:1008F000FFF738FE801B642873D828688003F7D57B
:100900000CE0FFF72FFE064605E000BFFFF72AFECA
:10091000801B6428F0D828688003F7D420789A4E8A
:1009200080074FF001094FF0000839D5686810F0D2
:100930000C0F07D06868C0F38100022809D16868ED
:10094000C00306D42868800714D52069012808D17F
:1009500010E02069B0B1C6F80090FFF703FE07462B
:1009600005E00AE1FFF7FEFDC01B0228C4D8286895
:100970008007F7D52868616920F0F80040EAC100D7
:1009800028600DE0C6F80080FFF7ECFD074604E0A4
:10099000FFF7E8FDC01B022823D828688007F7D49A
:1009A000207800072CD57948A169D9B1C0F800900A
:1009B000FFF7D8FD074604E0FFF7D4FDC01B02286F
:1009C0000FD8686A8007F7D571484FF4FA5100686C
:1009D000B0FBF1F0009000BF0098411E0091FAD2E8
:1009E0000EE080E0C0F80080FFF7BCFD074604E0A1
:1009F000FFF7B8FDC01B022875D8686A8007F7D4D6
:100A00002078400760D5E8690027C00008D4E8696D
:100A100040F08050E861E869012700F080500090C4
:100A20005C480168C90513D40168834641F48071AC
:100A30000160FFF797FD824606E000BFFFF792FDD9
:100A4000A0EB0A0064284ED8DBF80000C005F5D5FD
:100A5000E06801280AD008B1052813D0286A20F0E0
:100A600001002862286A20F0040002E0286A40F0B1
:100A700001002862E06841F2883B98B1FFF772FDFF
:100A800082460BE0286A40F004002862EEE700BFCF
:100A9000FFF768FDA0EB0A0159455AD8286A80077C
:100AA000F6D50CE0FFF75EFD824605E0FFF75AFD44
:100AB000A0EB0A0159454CD8286A8007F6D41FB12B
:100AC000E86920F08050E861E06988B36968C1F3A3
:100AD0008101022944D00228C6F8608004D0FFF7C3
:100AE00041FD044638E034E0FFF73CFD074604E0F2
:100AF000FFF738FDC01B02282BD828688001F7D4E7
:100B0000206AB0F5803F05D16868A16820F4003004
:100B100008436860D4E908010843696821F4741146
:100B200008436860C6F86090FFF71CFD044606E0C5
:100B300025E000BFFFF716FD001B022809D8286832
:100B40008001F7D51BE000BFFFF70CFD001B02285A
:100B500002D90320BDE8F88F28688001F4D40EE0A4
:100B60000128F7D06868226A00F48031914204D1EC
:100B7000616A00F47010884201D00120EAE7002089
:100B8000E8E70000001002400000424280044242B8
:100B9000A80200200070004010B5401EB0F1807F18
:100BA00001D3012010BD4FF0E02460610F216017D8
:100BB00000F07BFF0020A06107202061002010BD15
:100BC00070B590F83C20012A2CD0012480F83C40DC
:100BD000022280F83D2003685A689D6822F0700662
:100BE0000A6832435A60104B02689A420ED00F4B8B
:100BF0009A420BD0B2F1804F08D00D4B9A4205D0EB
:100C00000C4B9A4202D00C4B9A4204D1496825F011
:100C100080031943916080F83D40002180F83C102A
:100C2000084670BD022070BD002C01400034014018
:100C30000004004000080040000C004010B5040013
:100C400003D094F83D0010B107E0012010BD002052
:100C500084F83C00204600F01FF8022084F83D0094
:100C6000211D206800F0E4FC012084F8460084F88F
:100C70003E0084F83F0084F8400084F8410084F886
:100C8000420084F8430084F8440084F8450084F866
:100C90003D00002010BD000008B50068B0F1804F95
:100CA00008D10548C16941F00101C161C06900F086
:100CB0000100009008BD00000010024070B504461D
:100CC00090F83C00012817D0012584F83C50022000
:100CD00084F83D002068826822F0770222F47F4287
:100CE00082600868502830D00DDC20284DD005DC0B
:100CF00098B310283BD148E0022070BD302844D082
:100D0000402834D139E0602828D0702806D0B0F5CA
:100D1000805F2CD0B0F5005F29D10AE0CB68D1E923
:100D20000121206800F0D7FC2068816841F077013C
:100D300009E0CB68D1E90121206800F0CCFC2068F3
:100D4000816841F48041816011E0CA684968206887
:100D500000F096FD5021206807E016E0CA68496857
:100D6000206800F09EFD6021206800F0BEFC84F841
:100D70003D50002084F83C0070BDCA684968206876
:100D800000F07EFD40212068EFE722680146104612
:100D9000EBE7000000B585B00021009101910291C0
:100DA00003910068B0F1804F11D10A48816941F088
:100DB000040181618069694600F004000490032009
:100DC00000900220019003900348FFF7C9FA05B094
:100DD00000BD0000001002400008014070B504464C
:100DE00090F83C000D4601280AD0012084F83C0010
:100DF00042B1042A18D0082A2AD00C2A4DD139E051
:100E0000022070BD206800F079FC2068816941F003
:100E1000080181612068816921F0040181612068F5
:100E200081692A69114311E0206800F097FC20686D
:100E3000816941F4006181612068816921F48061E8
:100E40008161206881692A6941EA0221816124E087
:100E5000206800F0B9FC2068C16941F00801C16157
:100E60002068C16921F00401C1612068C1692A6953
:100E7000114311E0206800F0DBFC2068C16941F4F7
:100E80000061C1612068C16921F48061C16120688D
:100E9000C1692A6941EA0221C161002084F83C004D
:100EA00070BD10B5040003D094F83D0010B107E008
:100EB000012010BD002084F83C00204600F01EF800
:100EC000022084F83D00211D206800F0B1FB0120C4
:100ED00084F8460084F83E0084F83F0084F840001F
:100EE00084F8410084F8420084F8430084F8440008
:100EF00084F8450084F83D00002010BD70470000D4
:100F000010B50446022249B104290ED0082913D095
:100F100094F84100012816D0012010BD94F83E003D
:100F20000128F9D184F83E200FE094F83F00012811
:100F3000F2D184F83F2008E094F840000128EBD17A
:100F400084F8402001E084F841200122206800F06C
:100F5000B5FB13492068134A884201D0904203D15F
:100F6000436C43F400434364206888420DD09042B0
:100F70000BD0B0F1804F08D00B49884205D00B4907
:100F8000884202D00A49884204D1816801F00701F1
:100F9000062903D0016841F001010160002010BD65
:100FA000002C0140003401400004004000080040D3
:100FB000000C00407047000070B5026804461068DD
:100FC000D168536910F00F0F52D003F0010501F4FE
:100FD00090762E435FD0C20705D0CA0503D5E26BD9
:100FE00042F00102E263420705D5DA0703D0E26B63
:100FF00042F00202E263820705D5DA0703D0E26B12
:1010000042F00402E263020707D501F020022A43FE
:1010100003D0E26B42F00802E263E26B002A33D0B5
:10102000800604D5880602D5204600F069FC2068B9
:101030004069E16BC0F38010090700D428B3204653
:1010400000F050FC2068416949061AD5416921F039
:1010500040014161606BA0B12D494163606BFFF7B6
:10106000D5F8002810D0606B416BBDE87040084790
:10107000830610D58B060ED52046BDE8704000F0E3
:101080003FBC2046FFF796FF70BD2046FFF792FF5A
:101090000020E06370BD03062BD50B0629D594F81C
:1010A00039002128F6D1A068B0F5805F01D1206910
:1010B000B0B1206A411C2162216800784860E08C50
:1010C000401E0004000CE084E4D12068C16821F0D7
:1010D0008001C1602068C16841F04001C16070BDFD
:1010E000206A0088C0F308005060206A801C2062DB
:1010F000E5E74006F3D54806F1D5D168204621F052
:101100004001D160202184F8391000F070F970BDE1
:10111000D518000870B5040004D094F839000025F3
:1011200010B106E0012070BD84F83850204600F070
:1011300023F8242084F839002068C16821F4005184
:10114000C160204600F022FC2068016921F4904132
:1011500001612068416921F02A0141612068C1686C
:1011600041F40051C160E563202084F8390084F81F
:101170003A00002070BD0000F0B585B00024009456
:101180000194029403943B49394D03680E150220E3
:101190000322AB4229D1CB6943F40023CB61CB6955
:1011A00003F4002304938B6943F010038B61896976
:1011B000314D01F01001CDE90321CDE90060694610
:1011C0002846FFF7CDF8E814CDE900046946284623
:1011D0000294FFF7C5F8002211463420FFF72EFADB
:1011E0003420FFF71DFA05B0F0BD244F244DBB425B
:1011F0001AD18B6943F480438B618B6903F480437C
:1012000004938B6943F004038B618969039201F0B5
:10121000040104916915CDE9001069462846FFF7DD
:101220009FF8CDE900641DE0164EB342DBD1CB69D7
:1012300043F40033CB61CB6903F4003304938B692F
:1012400043F004038B618969039201F00401049166
:101250000421CDE9001069462846FFF781F80820EF
:10126000CDE90004694628460294FFF779F8BAE709
:10127000004C0040001002400010014000380140C6
:10128000000801400044004090F83A30202B22D161
:10129000F9B1F2B190F83830012B1CD0816282850F
:1012A000C2850021C163222280F83A2080F83810DC
:1012B0000168CA6842F48072CA6001684A6942F0F3
:1012C00001024A610068C16841F02001C16000204C
:1012D00070470120704702207047000030B400685A
:1012E000124988421FD11248124A817D037E53540D
:1012F000491CC9B2817512290ED10023C375A2F110
:101300001404C17D555C6554491CC9B2C1751229CC
:10131000F7D30121417583750549012230BC18318D
:101320000548FFF7B1BF30BC70470000004C0040DB
:1013300000000020C00200201C0300202DE9F8431B
:10134000044690F839001F4616460D4620284CD119
:10135000C5B1BEB194F83800012846D0012084F808
:1013600038004FF00008C4F83C80212084F8390090
:10137000FFF7F8F8A6848146E684A068B0F5805FA0
:1013800003D004E00120BDE8F883206928B12E468F
:101390005FF0000584F838800EE00026FAE780212F
:1013A000204600F04FFBA0B9AEB116F8010B216842
:1013B0004860E08C401EE084E08C4B464FF0000219
:1013C00000970028EBD14FF04001204600F03AFB97
:1013D00030B10320D7E735F8020BC0F30800E6E789
:1013E000202084F839000020CDE70220CBE77047A9
:1013F000FEE7000070B586B000241F4800940194F9
:1014000002940394816941F040018161816901F096
:1014100040010491816941F010018161816901F00D
:1014200010010491816941F0040181618069134ECA
:1014300000F00400049001223F213046FFF78CF8B1
:10144000002240213046FFF787F83F200125CDE9F3
:1014500000050320CDE9024069463046FEF780FFD3
:101460004020CDE900050220CDE902406946304622
:10147000FEF776FF06B070BD001002400018014074
:1014800010B58EB000240794089409940A940B9424
:101490001C2168460C94FEF76EFE23484FF08041F5
:1014A000016041F6BC31C0E90114C721C0E9031451
:1014B00080218161FFF7C2FB08B1FEF7A6FE4FF461
:1014C0008050079007A91848FFF7F8FB08B1FEF70E
:1014D0009CFE1548FFF7E5FC08B1FEF796FE0B945D
:1014E0000BA911480C94FFF76BFB08B1FEF78DFEBA
:1014F000602000900520CDE90104002269460A48D9
:101500000494FFF76BFC08B1FEF77FFE04226946E6
:101510000548FFF763FC08B1FEF777FE0248FFF7C6
:1015200039FC0EB010BD0000D40200200C4810B5EC
:101530000A4901604FF496514160002181600C22FC
:10154000C160C0E904128161C161FFF7E3FD0028B9
:1015500003D0BDE81040FEF758BE10BD004C00405F
:101560001C0300200C4810B50A4901604FF4965145
:101570004160002181600C22C160C0E904128161D8
:10158000C161FFF7C7FD002803D0BDE81040FEF79A
:101590003CBE10BD003801405C0300200C4810B573
:1015A0000A4901604FF416514160002181600C220C
:1015B000C160C0E904128161C161FFF7ABFD002881
:1015C00003D0BDE81040FEF720BE10BD004400402F
:1015D0009C030020FEE7704770477047FEF7C8BFC6
:1015E00030B58FB028216846FEF7C5FD14210AA842
:1015F000FEF7C1FD01210804CDE90010002402948A
:1016000002250491CDE907504FF4E0100990684697
:10161000FFF732F90F20CDE90A056802CDE90C4049
:1016200002210AA80E94FFF73BF80FB030BD7047B7
:10163000F0B502681C4B1D4D1D4E1E4F1E4C4FF049
:10164000804C984209D0A04207D0604505D0A842FE
:1016500003D0B04201D0B84204D122F0700E4A68E3
:1016600042EA0E02984209D0A04207D0604505D058
:10167000A84203D0B04201D0B84203D122F4407551
:10168000CA682A434D6922F080022A4302608A68B0
:10169000C2620A688262984201D0A04201D10969FF
:1016A000016301214161F0BD002C014000040040B4
:1016B00000080040000C00400034014010B501F06B
:1016C0001F030121046A99408C430462016A9A4015
:1016D0001143016210BD10B5846842EA032224F46C
:1016E0007F440A432243826010BD826822F0700268
:1016F0000A4342F00701816070470000F0B5026ABA
:1017000022F001020262036A42688469124E24F0E8
:1017100073050C682C4323F002058B682B430D4D99
:10172000A84201D0B04205D123F00807CB683B4363
:1017300023F00403A84201D0B04205D14D6922F440
:10174000407215438A692A43426084614968416353
:101750000362F0BD002C014000340140F0B5026A84
:1017600022F010020262026A436884690D6824F460
:10177000E64444EA05248D6822F0200242EA05127C
:101780000F4D104EA84201D0B04206D1CF6822F0D2
:10179000800242EA071222F04002A84201D0B04281
:1017A00007D14D6923F4406343EA85038D6943EA19
:1017B000850343608461496881630262F0BD000073
:1017C000002C014000340140F0B5026A22F480721E
:1017D0000262026A4368C46922F4007224F073054D
:1017E0000C68124E2C438D6842EA05220E4DA84229
:1017F00001D0B04206D1CF6822F4006242EA07224B
:1018000022F48062A84201D0B04207D14D6923F48E
:10181000405343EA05138D6943EA05134360C461ED
:101820004968C1630262F0BD002C014000340140F0
:1018300030B5026A22F480520262046A4268C369C7
:101840000D6823F4E64343EA05238D6824F400542D
:1018500044EA0534084DA84202D0084DA84204D1FC
:101860004D6922F4804242EA85124260C3614968B0
:101870000164046230BD0000002C014000340140CE
:1018800010B5036A046A24F001040462846924F038
:10189000F00444EA021423F00A020A43846102625B
:1018A00010BD10B5036A23F0100303628369046A54
:1018B00023F4704343EA023224F0A00343EA011107
:1018C0008261016210BD00000148FFF775BB000096
:1018D0001C03002010B5406A0021C185C184FFF7B8
:1018E00069FB10BD0168CA6822F49072CA60016881
:1018F0004A6922F001024A61202180F83A107047BB
:1019000010B590F83A10222901D0022010BD82684B
:101910004FF480539A4201D1016921B1816A9A4200
:101920001BD04AB10AE00268816A5268C2F3080219
:101930000A80816A891C08E0026972B102685268F3
:1019400002F07F020A70816A491C8162C18D491EC2
:101950000904090CC18503D016E002685268F1E75A
:101960000168CA6822F02002CA600168CA6822F4CD
:101970008072CA6001684A6922F001024A6120212E
:1019800080F83A10FFF7AAFC002010BD70B504469D
:1019900000680169E26821F4405111430161216945
:1019A000A0680843616908432168CA6841F20C6372
:1019B0009A430243CA6020684169A26921F44071D8
:1019C000114341611E492068884202D1FEF70EFF93
:1019D00001E0FEF7FBFE00EBC00101EB00126068C6
:1019E00064218000B2FBF0F3B3FBF1F36FF0180653
:1019F0007343B2FBF0F5B2FBF0F605EB830532233F
:101A000003EB0515B5FBF1F5B6FBF1F605F0F005B6
:101A100005EB0615B2FBF0F6B2FBF0F0B0FBF1F00F
:101A20006FF01802504306EB800003EB0010B0FB90
:101A3000F1F0216800F00F002844886070BD0000BC
:101A4000003801402DE9F041984617460E460446FD
:101A5000069D1DE0681C1BD02DB1FEF783FDA0EB99
:101A60000800A84214D92068C16821F4D071C1606F
:101A70002068416921F001014161202084F839008A
:101A800084F83A00002084F838000320BDE8F08193
:101A90002068006836EA000004D00020B842D9D09F
:101AA0000020F3E70120F9E7FEE70907090E002807
:101AB00004DB00F1E02080F80014704700F00F0014
:101AC00000F1E02080F8141D704702E008C8121FE2
:101AD00008C1002AFAD170477047002001E001C117
:101AE000121F002AFBD17047FEF74AFDFFF778FD71
:101AF000FFF780FCFFF736FDFFF750FDFFF7C0FC56
:101B0000FFF714FD4FF6FF752B460A22F1A1F448AA
:101B1000FFF714FC0021F348FFF7F2F90421F14824
:101B2000FFF7EEF90122F049F048FFF7ADFBEE4C6C
:101B3000DFF8B083EE4E4FF0010A4FF00009183C79
:101B4000AB464FF4FA77607D01285CD14D4684F8AE
:101B500015905B461222E749E148FFF7EFFBE548A5
:101B600025700178442902D04B2943D04BE04178BD
:101B7000442948D1817B532945D1C17B502942D189
:101B800084F800A082785146312A49D02571C27864
:101B9000312A47D065710279312A45D0A571427941
:101BA000312A43D0E5718279312A41D02572C27938
:101BB000312A3FD06572027A312A3DD0A572427A2D
:101BC000312A3BD0E572827A312A39D02573C27A24
:101BD000312A37D06573027B312A35D0A573427B19
:101BE000312A33D0E57300214554491C1229FBDB0F
:101BF000257008E041785A2905D1817B532902D10B
:101C0000C17B502904D0207C01287FD080B38EE096
:101C10000221217081784B291AD047291ED021E05A
:101C20002171B4E76171B6E7A171B8E7E171BAE774
:101C30002172BCE76172BEE7A172C0E7E172C2E740
:101C40002173C4E76173C6E7A173C8E7E173CAE70C
:101C5000C178442906D184F810A003E0C178442952
:101C600000D1257401794B2903D0472907D00AE018
:101C700053E041794D2906D184F813A003E041795E
:101C80004D2900D1E57481794B2902D0472909D02B
:101C90000FE0C17946290CD1017A532909D184F882
:101CA00011A006E0C179462903D1017A532900D158
:101CB0006574417A4B2902D0472909D00FE0817A17
:101CC00043290CD1C17A4C2909D184F814A006E02B
:101CD000817A432903D1C17A4C2900D12575017B32
:101CE0004B2903D0472907D00AE00FE0417B432965
:101CF00006D184F812A003E0417B432900D1A574EA
:101D000000214554491C1229FBDB71E700221021F8
:101D10003046FEF721FC002205E00122102130466A
:101D2000FEF71AFC012220213046FEF715FC207A2E
:101D3000012802D0607B01280DD10022012130460C
:101D4000FEF70AFC41F28830FEF7F8FA012211464C
:101D50003046FEF701FC607C012801D010B106E09E
:101D6000002200E0012202213046FEF7F5FB207937
:101D7000012802D0607A012804D1002202213046D5
:101D8000FEF7EAFBA07818B1012809D098B121E04C
:101D9000A07C01280FD1D8F800100F20886314E030
:101DA000A07CB8B9D8F80010052088633846FEF743
:101DB000C5FA84F80290A079E17A0843217B0843B0
:101DC00008D0D8F800000F2181633846FEF7B6FA34
:101DD00084F802A0607810B101280DD017E0E07CF3
:101DE000012814D1D8F800000F2141633846FEF7CE
:101DF000A5FA84F801A00AE0E07C40B9D8F8000018
:101E0000052141633846FEF799FA84F80190E0789D
:101E100010B1012814D025E0207D012822D1002214
:101E200004213046FEF798FB4FF47A70FEF786FAED
:101E3000012204213046FEF78FFB84F803A011E055
:101E4000207D78B9002208213046FEF785FB4FF44B
:101E50007A70FEF773FA012208213046FEF77CFB08
:101E600084F80390A07A01280CD0207B012809D0A7
:101E700021495B460B222148FFF760FA3846FEF7FE
:101E80005DFA60E6012240213046FEF765FB164907
:101E90005D465B461522491C1848FFF74FFA384645
:101EA000FEF74CFA14492B46132280391348FFF7EA
:101EB00045FA3846FEF742FA0B492B461522813186
:101EC0000E48FFF73BFA3846FEF738FA2B46152244
:101ED0000B49D0E768656C6C6F20776F7264000007
:101EE0005C030020D4020020180000201C03002006
:101EF00000180140AC020020190200209C030020C1
:101F0000190100200000000000000000010203048D
:101F10000607080900000000010203043C1F000836
:101F200000000020AC020000B0010008881F00087B
:101F3000AC02002034050000DA1A000801193364ED
:101F40001013060C120112044A0F02036BB529A9E3
:101F5000804AF0020B74DE428039FD19020B6C28B6
:101F60007480121E13050A1C010BB87B066DC80194
:101F7000F485691980212301021A310401763201A6
:081F80002986511324F400002E
:0400000508000131BD
:00000001FF
